{
  "contractName": "QDAO",
  "abi": [
    {
      "constant": true,
      "inputs": [
        {
          "name": "",
          "type": "uint256"
        }
      ],
      "name": "owners",
      "outputs": [
        {
          "name": "",
          "type": "address"
        }
      ],
      "payable": false,
      "stateMutability": "view",
      "type": "function"
    },
    {
      "constant": true,
      "inputs": [],
      "name": "name",
      "outputs": [
        {
          "name": "",
          "type": "string"
        }
      ],
      "payable": false,
      "stateMutability": "view",
      "type": "function"
    },
    {
      "constant": false,
      "inputs": [
        {
          "name": "_spender",
          "type": "address"
        },
        {
          "name": "_value",
          "type": "uint256"
        }
      ],
      "name": "approve",
      "outputs": [
        {
          "name": "",
          "type": "bool"
        }
      ],
      "payable": false,
      "stateMutability": "nonpayable",
      "type": "function"
    },
    {
      "constant": true,
      "inputs": [],
      "name": "totalSupply",
      "outputs": [
        {
          "name": "",
          "type": "uint256"
        }
      ],
      "payable": false,
      "stateMutability": "view",
      "type": "function"
    },
    {
      "constant": true,
      "inputs": [],
      "name": "allOperationsCount",
      "outputs": [
        {
          "name": "",
          "type": "uint256"
        }
      ],
      "payable": false,
      "stateMutability": "view",
      "type": "function"
    },
    {
      "constant": false,
      "inputs": [
        {
          "name": "_from",
          "type": "address"
        },
        {
          "name": "_to",
          "type": "address"
        },
        {
          "name": "_value",
          "type": "uint256"
        }
      ],
      "name": "transferFrom",
      "outputs": [
        {
          "name": "",
          "type": "bool"
        }
      ],
      "payable": false,
      "stateMutability": "nonpayable",
      "type": "function"
    },
    {
      "constant": true,
      "inputs": [],
      "name": "howManyOwnersDecide",
      "outputs": [
        {
          "name": "",
          "type": "uint256"
        }
      ],
      "payable": false,
      "stateMutability": "view",
      "type": "function"
    },
    {
      "constant": true,
      "inputs": [
        {
          "name": "wallet",
          "type": "address"
        }
      ],
      "name": "isOwner",
      "outputs": [
        {
          "name": "",
          "type": "bool"
        }
      ],
      "payable": false,
      "stateMutability": "view",
      "type": "function"
    },
    {
      "constant": true,
      "inputs": [],
      "name": "decimals",
      "outputs": [
        {
          "name": "",
          "type": "uint8"
        }
      ],
      "payable": false,
      "stateMutability": "view",
      "type": "function"
    },
    {
      "constant": false,
      "inputs": [],
      "name": "unpause",
      "outputs": [],
      "payable": false,
      "stateMutability": "nonpayable",
      "type": "function"
    },
    {
      "constant": true,
      "inputs": [
        {
          "name": "",
          "type": "uint256"
        }
      ],
      "name": "allOperations",
      "outputs": [
        {
          "name": "",
          "type": "bytes32"
        }
      ],
      "payable": false,
      "stateMutability": "view",
      "type": "function"
    },
    {
      "constant": true,
      "inputs": [
        {
          "name": "",
          "type": "address"
        }
      ],
      "name": "governanceContracts",
      "outputs": [
        {
          "name": "",
          "type": "bool"
        }
      ],
      "payable": false,
      "stateMutability": "view",
      "type": "function"
    },
    {
      "constant": true,
      "inputs": [
        {
          "name": "",
          "type": "bytes32"
        }
      ],
      "name": "votesMaskByOperation",
      "outputs": [
        {
          "name": "",
          "type": "uint256"
        }
      ],
      "payable": false,
      "stateMutability": "view",
      "type": "function"
    },
    {
      "constant": true,
      "inputs": [],
      "name": "paused",
      "outputs": [
        {
          "name": "",
          "type": "bool"
        }
      ],
      "payable": false,
      "stateMutability": "view",
      "type": "function"
    },
    {
      "constant": false,
      "inputs": [
        {
          "name": "_spender",
          "type": "address"
        },
        {
          "name": "_subtractedValue",
          "type": "uint256"
        }
      ],
      "name": "decreaseApproval",
      "outputs": [
        {
          "name": "success",
          "type": "bool"
        }
      ],
      "payable": false,
      "stateMutability": "nonpayable",
      "type": "function"
    },
    {
      "constant": false,
      "inputs": [
        {
          "name": "_newOwner",
          "type": "address"
        },
        {
          "name": "_oldOwner",
          "type": "address"
        }
      ],
      "name": "transferOwnership",
      "outputs": [],
      "payable": false,
      "stateMutability": "nonpayable",
      "type": "function"
    },
    {
      "constant": true,
      "inputs": [
        {
          "name": "_owner",
          "type": "address"
        }
      ],
      "name": "balanceOf",
      "outputs": [
        {
          "name": "",
          "type": "uint256"
        }
      ],
      "payable": false,
      "stateMutability": "view",
      "type": "function"
    },
    {
      "constant": false,
      "inputs": [
        {
          "name": "addr",
          "type": "address"
        }
      ],
      "name": "addAddressToGovernanceContract",
      "outputs": [
        {
          "name": "success",
          "type": "bool"
        }
      ],
      "payable": false,
      "stateMutability": "nonpayable",
      "type": "function"
    },
    {
      "constant": false,
      "inputs": [],
      "name": "pause",
      "outputs": [],
      "payable": false,
      "stateMutability": "nonpayable",
      "type": "function"
    },
    {
      "constant": false,
      "inputs": [
        {
          "name": "operation",
          "type": "bytes32"
        }
      ],
      "name": "cancelPending",
      "outputs": [],
      "payable": false,
      "stateMutability": "nonpayable",
      "type": "function"
    },
    {
      "constant": true,
      "inputs": [
        {
          "name": "",
          "type": "bytes32"
        }
      ],
      "name": "votesCountByOperation",
      "outputs": [
        {
          "name": "",
          "type": "uint256"
        }
      ],
      "payable": false,
      "stateMutability": "view",
      "type": "function"
    },
    {
      "constant": true,
      "inputs": [],
      "name": "symbol",
      "outputs": [
        {
          "name": "",
          "type": "string"
        }
      ],
      "payable": false,
      "stateMutability": "view",
      "type": "function"
    },
    {
      "constant": false,
      "inputs": [
        {
          "name": "_to",
          "type": "address"
        },
        {
          "name": "_value",
          "type": "uint256"
        }
      ],
      "name": "transfer",
      "outputs": [
        {
          "name": "",
          "type": "bool"
        }
      ],
      "payable": false,
      "stateMutability": "nonpayable",
      "type": "function"
    },
    {
      "constant": true,
      "inputs": [],
      "name": "ownersCount",
      "outputs": [
        {
          "name": "",
          "type": "uint256"
        }
      ],
      "payable": false,
      "stateMutability": "view",
      "type": "function"
    },
    {
      "constant": true,
      "inputs": [
        {
          "name": "",
          "type": "address"
        }
      ],
      "name": "ownersIndices",
      "outputs": [
        {
          "name": "",
          "type": "uint256"
        }
      ],
      "payable": false,
      "stateMutability": "view",
      "type": "function"
    },
    {
      "constant": false,
      "inputs": [
        {
          "name": "_spender",
          "type": "address"
        },
        {
          "name": "_addedValue",
          "type": "uint256"
        }
      ],
      "name": "increaseApproval",
      "outputs": [
        {
          "name": "success",
          "type": "bool"
        }
      ],
      "payable": false,
      "stateMutability": "nonpayable",
      "type": "function"
    },
    {
      "constant": true,
      "inputs": [
        {
          "name": "_owner",
          "type": "address"
        },
        {
          "name": "_spender",
          "type": "address"
        }
      ],
      "name": "allowance",
      "outputs": [
        {
          "name": "",
          "type": "uint256"
        }
      ],
      "payable": false,
      "stateMutability": "view",
      "type": "function"
    },
    {
      "constant": true,
      "inputs": [
        {
          "name": "",
          "type": "bytes32"
        }
      ],
      "name": "allOperationsIndicies",
      "outputs": [
        {
          "name": "",
          "type": "uint256"
        }
      ],
      "payable": false,
      "stateMutability": "view",
      "type": "function"
    },
    {
      "constant": false,
      "inputs": [
        {
          "name": "addr",
          "type": "address"
        }
      ],
      "name": "removeAddressFromGovernanceContract",
      "outputs": [
        {
          "name": "success",
          "type": "bool"
        }
      ],
      "payable": false,
      "stateMutability": "nonpayable",
      "type": "function"
    },
    {
      "inputs": [
        {
          "name": "_firstOwner",
          "type": "address"
        },
        {
          "name": "_secondOwner",
          "type": "address"
        },
        {
          "name": "_thirdOwner",
          "type": "address"
        },
        {
          "name": "_fourthOwner",
          "type": "address"
        },
        {
          "name": "_fifthOwner",
          "type": "address"
        }
      ],
      "payable": false,
      "stateMutability": "nonpayable",
      "type": "constructor"
    },
    {
      "anonymous": false,
      "inputs": [
        {
          "indexed": true,
          "name": "to",
          "type": "address"
        },
        {
          "indexed": false,
          "name": "amount",
          "type": "uint256"
        }
      ],
      "name": "Mint",
      "type": "event"
    },
    {
      "anonymous": false,
      "inputs": [
        {
          "indexed": false,
          "name": "addr",
          "type": "address"
        }
      ],
      "name": "GovernanceContractAdded",
      "type": "event"
    },
    {
      "anonymous": false,
      "inputs": [
        {
          "indexed": false,
          "name": "addr",
          "type": "address"
        }
      ],
      "name": "GovernanceContractRemoved",
      "type": "event"
    },
    {
      "anonymous": false,
      "inputs": [
        {
          "indexed": false,
          "name": "operation",
          "type": "bytes32"
        },
        {
          "indexed": false,
          "name": "howMany",
          "type": "uint256"
        },
        {
          "indexed": false,
          "name": "ownersCount",
          "type": "uint256"
        },
        {
          "indexed": false,
          "name": "proposer",
          "type": "address"
        }
      ],
      "name": "OperationCreated",
      "type": "event"
    },
    {
      "anonymous": false,
      "inputs": [
        {
          "indexed": false,
          "name": "operation",
          "type": "bytes32"
        },
        {
          "indexed": false,
          "name": "votes",
          "type": "uint256"
        },
        {
          "indexed": false,
          "name": "howMany",
          "type": "uint256"
        },
        {
          "indexed": false,
          "name": "ownersCount",
          "type": "uint256"
        },
        {
          "indexed": false,
          "name": "upvoter",
          "type": "address"
        }
      ],
      "name": "OperationUpvoted",
      "type": "event"
    },
    {
      "anonymous": false,
      "inputs": [
        {
          "indexed": false,
          "name": "operation",
          "type": "bytes32"
        },
        {
          "indexed": false,
          "name": "howMany",
          "type": "uint256"
        },
        {
          "indexed": false,
          "name": "ownersCount",
          "type": "uint256"
        },
        {
          "indexed": false,
          "name": "performer",
          "type": "address"
        }
      ],
      "name": "OperationPerformed",
      "type": "event"
    },
    {
      "anonymous": false,
      "inputs": [
        {
          "indexed": false,
          "name": "operation",
          "type": "bytes32"
        },
        {
          "indexed": false,
          "name": "votes",
          "type": "uint256"
        },
        {
          "indexed": false,
          "name": "ownersCount",
          "type": "uint256"
        },
        {
          "indexed": false,
          "name": "downvoter",
          "type": "address"
        }
      ],
      "name": "OperationDownvoted",
      "type": "event"
    },
    {
      "anonymous": false,
      "inputs": [
        {
          "indexed": false,
          "name": "operation",
          "type": "bytes32"
        },
        {
          "indexed": false,
          "name": "lastCanceller",
          "type": "address"
        }
      ],
      "name": "OperationCancelled",
      "type": "event"
    },
    {
      "anonymous": false,
      "inputs": [
        {
          "indexed": true,
          "name": "previousOwner",
          "type": "address"
        }
      ],
      "name": "OwnershipRenounced",
      "type": "event"
    },
    {
      "anonymous": false,
      "inputs": [
        {
          "indexed": true,
          "name": "previousOwner",
          "type": "address"
        },
        {
          "indexed": true,
          "name": "newOwner",
          "type": "address"
        }
      ],
      "name": "OwnershipTransferred",
      "type": "event"
    },
    {
      "anonymous": false,
      "inputs": [],
      "name": "Pause",
      "type": "event"
    },
    {
      "anonymous": false,
      "inputs": [],
      "name": "Unpause",
      "type": "event"
    },
    {
      "anonymous": false,
      "inputs": [
        {
          "indexed": true,
          "name": "burner",
          "type": "address"
        },
        {
          "indexed": false,
          "name": "value",
          "type": "uint256"
        }
      ],
      "name": "Burn",
      "type": "event"
    },
    {
      "anonymous": false,
      "inputs": [
        {
          "indexed": true,
          "name": "owner",
          "type": "address"
        },
        {
          "indexed": true,
          "name": "spender",
          "type": "address"
        },
        {
          "indexed": false,
          "name": "value",
          "type": "uint256"
        }
      ],
      "name": "Approval",
      "type": "event"
    },
    {
      "anonymous": false,
      "inputs": [
        {
          "indexed": true,
          "name": "from",
          "type": "address"
        },
        {
          "indexed": true,
          "name": "to",
          "type": "address"
        },
        {
          "indexed": false,
          "name": "value",
          "type": "uint256"
        }
      ],
      "name": "Transfer",
      "type": "event"
    },
    {
      "constant": false,
      "inputs": [
        {
          "name": "_to",
          "type": "address"
        },
        {
          "name": "_amount",
          "type": "uint256"
        }
      ],
      "name": "mint",
      "outputs": [
        {
          "name": "",
          "type": "bool"
        }
      ],
      "payable": false,
      "stateMutability": "nonpayable",
      "type": "function"
    },
    {
      "constant": false,
      "inputs": [
        {
          "name": "_sender",
          "type": "address"
        },
        {
          "name": "_spender",
          "type": "address"
        },
        {
          "name": "_value",
          "type": "uint256"
        }
      ],
      "name": "approveForOtherContracts",
      "outputs": [],
      "payable": false,
      "stateMutability": "nonpayable",
      "type": "function"
    },
    {
      "constant": false,
      "inputs": [
        {
          "name": "_to",
          "type": "address"
        },
        {
          "name": "_amount",
          "type": "uint256"
        }
      ],
      "name": "burnFrom",
      "outputs": [
        {
          "name": "",
          "type": "bool"
        }
      ],
      "payable": false,
      "stateMutability": "nonpayable",
      "type": "function"
    },
    {
      "constant": false,
      "inputs": [
        {
          "name": "_recipients",
          "type": "address[]"
        },
        {
          "name": "_values",
          "type": "uint256[]"
        }
      ],
      "name": "transferMany",
      "outputs": [],
      "payable": false,
      "stateMutability": "nonpayable",
      "type": "function"
    }
  ],
  "bytecode": "0x60806040526005805461ff00191690553480156200001c57600080fd5b5060405160a08062001fea83398101604081815282516020808501518386015160608701516080909701518587018652601b87527f512044414f20476f7665726e616e636520746f6b656e2076312e3000000000008488019081528651808801909752600487527f5144414f0000000000000000000000000000000000000000000000000000000094870194909452865194979296919592949093919291601291620000cb91600391620001ff565b508151620000e1906004906020850190620001ff565b506005805460ff191660ff9290921691909117815560098054600181810183557f6e1540171b6c0c960b71a7020d9f60077f6af931a8bbf590da0223dacf75c7af9182018054600160a060020a0319908116600160a060020a039d8e16908117909255845480840186558401805482169c8e169c8d179055845480840186558401805482169b8e169b8c179055845480840186558401805482169a8e169a8b1790558454808401865584018054821699909d16988917909c558354808301909455929091018054339b168b1790556000918252600b60205260408083209190915597815287812060029055958652868620600390559385525050838320600490819055908352838320919091559281522060069081905555620002a4565b828054600181600116156101000203166002900490600052602060002090601f016020900481019282601f106200024257805160ff191683800117855562000272565b8280016001018555821562000272579182015b828111156200027257825182559160200191906001019062000255565b506200028092915062000284565b5090565b620002a191905b808211156200028057600081556001016200028b565b90565b611d3680620002b46000396000f3006080604052600436106101a05763ffffffff7c0100000000000000000000000000000000000000000000000000000000600035041663025e7c2781146101a557806306fdde03146101d9578063095ea7b31461026357806316d8039c1461029b57806318160ddd146102c757806322f2f89a146102ee57806323b872dd146103035780632f4a81df1461032d5780632f54bf6e14610342578063313ce567146103635780633f4ba83a1461038e57806340c10f19146103a3578063431ab233146103c757806350500a8a146103df578063568b5915146104005780635c975abb14610418578063661884631461042d5780636d4354211461045157806370a082311461047857806379cc67901461049957806381ab5b0e146104bd5780638456cb59146104de578063893372ca146104f357806390a530851461050b57806395d89b4114610523578063a9059cbb14610538578063b7fc66121461055c578063b9488546146105ea578063cc047a04146105ff578063d73dd62314610620578063dd62ed3e14610644578063ea1a26441461066b578063f666cd3714610683575b600080fd5b3480156101b157600080fd5b506101bd6004356106a4565b60408051600160a060020a039092168252519081900360200190f35b3480156101e557600080fd5b506101ee6106cc565b6040805160208082528351818301528351919283929083019185019080838360005b83811015610228578181015183820152602001610210565b50505050905090810190601f1680156102555780820380516001836020036101000a031916815260200191505b509250505060405180910390f35b34801561026f57600080fd5b50610287600160a060020a036004351660243561075a565b604080519115158252519081900360200190f35b3480156102a757600080fd5b506102c5600160a060020a0360043581169060243516604435610783565b005b3480156102d357600080fd5b506102dc6107f1565b60408051918252519081900360200190f35b3480156102fa57600080fd5b506102dc6107f8565b34801561030f57600080fd5b50610287600160a060020a03600435811690602435166044356107fe565b34801561033957600080fd5b506102dc610829565b34801561034e57600080fd5b50610287600160a060020a036004351661082f565b34801561036f57600080fd5b5061037861084b565b6040805160ff9092168252519081900360200190f35b34801561039a57600080fd5b506102c5610854565b3480156103af57600080fd5b50610287600160a060020a03600435166024356108fc565b3480156103d357600080fd5b506102dc6004356109e1565b3480156103eb57600080fd5b50610287600160a060020a0360043516610a00565b34801561040c57600080fd5b506102dc600435610a15565b34801561042457600080fd5b50610287610a27565b34801561043957600080fd5b50610287600160a060020a0360043516602435610a35565b34801561045d57600080fd5b506102c5600160a060020a0360043581169060243516610a57565b34801561048457600080fd5b506102dc600160a060020a0360043516610ac1565b3480156104a557600080fd5b50610287600160a060020a0360043516602435610adc565b3480156104c957600080fd5b50610287600160a060020a0360043516610b41565b3480156104ea57600080fd5b506102c5610c22565b3480156104ff57600080fd5b506102c5600435610ccc565b34801561051757600080fd5b506102dc600435610e98565b34801561052f57600080fd5b506101ee610eaa565b34801561054457600080fd5b50610287600160a060020a0360043516602435610f05565b34801561056857600080fd5b50604080516020600480358082013583810280860185019096528085526102c595369593946024949385019291829185019084908082843750506040805187358901803560208181028481018201909552818452989b9a998901989297509082019550935083925085019084908082843750949750610f279650505050505050565b3480156105f657600080fd5b506102dc61106e565b34801561060b57600080fd5b506102dc600160a060020a0360043516611074565b34801561062c57600080fd5b50610287600160a060020a0360043516602435611086565b34801561065057600080fd5b506102dc600160a060020a03600435811690602435166110a8565b34801561067757600080fd5b506102dc6004356110d3565b34801561068f57600080fd5b50610287600160a060020a03600435166110e5565b60098054829081106106b257fe5b600091825260209091200154600160a060020a0316905081565b6003805460408051602060026001851615610100026000190190941693909304601f810184900484028201840190925281815292918301828280156107525780601f1061072757610100808354040283529160200191610752565b820191906000526020600020905b81548152906001019060200180831161073557829003601f168201915b505050505081565b600554600090610100900460ff161561077257600080fd5b61077c83836111c0565b9392505050565b336000908152600f602052604090205460ff1615156107a157600080fd5b600160a060020a0380841660008181526002602090815260408083209487168084529482529182902085905581518581529151600080516020611ceb8339815191529281900390910190a3505050565b6001545b90565b600a5490565b600554600090610100900460ff161561081657600080fd5b610821848484611214565b949350505050565b60065481565b600160a060020a03166000908152600b60205260408120541190565b60055460ff1681565b6000610861600654611377565b156108f95750600754600160a060020a03161580156108935760078054600160a060020a031916331790556006546008555b600554610100900460ff1615156108a957600080fd5b6005805461ff00191690556040517f7805862f689e2f13df9f062ff482ad3ad112aca9e0847911ed832e158c525b3390600090a180156108f95760078054600160a060020a031916905560006008555b50565b336000908152600f602052604081205460ff16151561091a57600080fd5b60015461092d908363ffffffff61178116565b600155600160a060020a038316600090815260208190526040902054610959908363ffffffff61178116565b600160a060020a03841660008181526020818152604091829020939093558051858152905191927f0f6798a560793a54c3bcfe86a93cde1e73087d944c0ea20544137d412139688592918290030190a2604080518381529051600160a060020a03851691600091600080516020611ccb8339815191529181900360200190a350600192915050565b600a8054829081106109ef57fe5b600091825260209091200154905081565b600f6020526000908152604090205460ff1681565b600d6020526000908152604090205481565b600554610100900460ff1681565b600554600090610100900460ff1615610a4d57600080fd5b61077c8383611794565b6000610a64600654611377565b15610abc5750600754600160a060020a0316158015610a965760078054600160a060020a031916331790556006546008555b610aa08383611871565b8015610abc5760078054600160a060020a031916905560006008555b505050565b600160a060020a031660009081526020819052604090205490565b336000908152600f602052604081205460ff161515610afa57600080fd5b600160a060020a0383166000908152600260209081526040808320338085529252909120839055610b2d908490846107fe565b50610b38338361196f565b50600192915050565b600080610b4f600654611377565b15610c1c5750600754600160a060020a0316158015610b815760078054600160a060020a031916331790556006546008555b600160a060020a0383166000908152600f602052604090205460ff161515610c0057600160a060020a0383166000818152600f6020908152604091829020805460ff19166001179055815192835290517fc8b076565c11e989d811cc9ebc33f3fc9d6a635f402f80ca900c7c126ba887489281900390910190a1600191505b8015610c1c5760078054600160a060020a031916905560006008555b50919050565b6000610c2f600654611377565b156108f95750600754600160a060020a0316158015610c615760078054600160a060020a031916331790556006546008555b600554610100900460ff1615610c7657600080fd5b6005805461ff0019166101001790556040517f6985a02210a168e66602d3235cb6db0e70f92b3ba4d376a33c0f3d9434bff62590600090a180156108f95760078054600160a060020a0319169055600060085550565b6000806000610cdb6001611377565b15610e925750600754600160a060020a0316158015610d0c5760078054600160a060020a0319163317905560016008555b336000908152600b6020908152604080832054878452600d909252909120546000199091019350600284900a161515610db5576040805160e560020a62461bcd02815260206004820152603060248201527f63616e63656c50656e64696e673a206f7065726174696f6e206e6f7420666f7560448201527f6e6420666f722074686973207573657200000000000000000000000000000000606482015290519081900360840190fd5b6000848152600d602090815260408083208054600288900a19169055600e8252918290208054600019019081905560095483518881529283018290528284015233606083015291519193507f3e0a7036018b5a2a3c5d0afa14e51998ef3cf98c38e4289a8897222b3acf75a7919081900360800190a1811515610e7657610e3b84611a5e565b6040805185815233602082015281517f55e0dd61c29aac6fc36807628300ad3e3ec68655ae76ae4002f7fb101496fa9f929181900390910190a15b8015610e925760078054600160a060020a031916905560006008555b50505050565b600e6020526000908152604090205481565b6004805460408051602060026001851615610100026000190190941693909304601f810184900484028201840190925281815292918301828280156107525780601f1061072757610100808354040283529160200191610752565b600554600090610100900460ff1615610f1d57600080fd5b61077c8383611b27565b336000908152600f60205260408120548190819060ff161515610f4957600080fd5b8351855114610f5757600080fd5b8451600010610f6557600080fd5b600092505b8451831015611067578483815181101515610f8157fe5b9060200190602002015191508383815181101515610f9b57fe5b602090810290910101519050600160a060020a03821615801590610fbe57508015155b1515610fc957600080fd5b33600090815260208190526040902054610fe9908263ffffffff611bf416565b3360009081526020819052604080822092909255600160a060020a0384168152205461101b908263ffffffff61178116565b600160a060020a03831660008181526020818152604091829020939093558051848152905191923392600080516020611ccb8339815191529281900390910190a3600190920191610f6a565b5050505050565b60095490565b600b6020526000908152604090205481565b600554600090610100900460ff161561109e57600080fd5b61077c8383611c06565b600160a060020a03918216600090815260026020908152604080832093909416825291909152205490565b600c6020526000908152604090205481565b6000806110f3600654611377565b15610c1c5750600754600160a060020a03161580156111255760078054600160a060020a031916331790556006546008555b600160a060020a0383166000908152600f602052604090205460ff1615610c0057600160a060020a0383166000818152600f6020908152604091829020805460ff19169055815192835290517f6143afc7a354e1ab1c3f52714297bfe2a0958df8cd9e15f84953a51264bb52bc9281900390910190a1600191508015610c1c5760078054600160a060020a0319169055600060085550919050565b336000818152600260209081526040808320600160a060020a03871680855290835281842086905581518681529151939490939092600080516020611ceb833981519152928290030190a350600192915050565b600160a060020a03831660009081526020819052604081205482111561123957600080fd5b600160a060020a038416600090815260026020908152604080832033845290915290205482111561126957600080fd5b600160a060020a038316151561127e57600080fd5b600160a060020a0384166000908152602081905260409020546112a7908363ffffffff611bf416565b600160a060020a0380861660009081526020819052604080822093909355908516815220546112dc908363ffffffff61178116565b600160a060020a0380851660009081526020818152604080832094909455918716815260028252828120338252909152205461131e908363ffffffff611bf416565b600160a060020a0380861660008181526002602090815260408083203384528252918290209490945580518681529051928716939192600080516020611ccb833981519152929181900390910190a35060019392505050565b600754600090819081908190600160a060020a03163314156114435760085485111561143a576040805160e560020a62461bcd028152602060048201526044602482018190527f636865636b486f774d616e794f776e6572733a206e6573746564206f776e6572908201527f73206d6f64696669657220636865636b2072657175697265206d6f7265206f7760648201527f6e65727300000000000000000000000000000000000000000000000000000000608482015290519081900360a40190fd5b60019350611779565b336000908152600b6020526040902054600954600019909101935083106114da576040805160e560020a62461bcd02815260206004820152602e60248201527f636865636b486f774d616e794f776e6572733a206d73672e73656e646572206960448201527f73206e6f7420616e206f776e6572000000000000000000000000000000000000606482015290519081900360840190fd5b600036604051602001808383808284378201915050925050506040516020818303038152906040526040518082805190602001908083835b602083106115315780518252601f199092019160209182019101611512565b51815160209384036101000a600019018019909216911617905260408051929094018290039091206000818152600d9092529290205491955050600286900a161591506115f09050576040805160e560020a62461bcd02815260206004820152603960248201527f636865636b486f774d616e794f776e6572733a206f776e657220616c7265616460448201527f7920766f74656420666f7220746865206f7065726174696f6e00000000000000606482015290519081900360840190fd5b506000818152600d602090815260408083208054600287900a179055600e909152902080546001908101918290558114156116b357600a80546000848152600c60209081526040808320849055600184018555939091527fc65a7bb8d6351c1cf70c95a316cc6a92839c986682d98bc35f958f4883f9d2a890910184905560095482518581529182018890528183015233606082015290517f6bab0114f9524353d2d33e64edd3ebbd16e21edd57de2226ba76c310a7ce22659181900360800190a15b60095460408051848152602081018490528082018890526060810192909252336080830152517f8dd9582c6577aea81973b5adeb6c135f6e18565d99578b7ba0c9377437ec02219181900360a00190a16000828152600e60205260409020548514156117745761172282611a5e565b600954604080518481526020810188905280820192909252336060830152517f8a11c8ca99994c292318ce367f65bf6ff61d390bc814b3588496f6fbcc32807a9181900360800190a160019350611779565b600093505b505050919050565b8181018281101561178e57fe5b92915050565b336000908152600260209081526040808320600160a060020a03861684529091528120548083106117e857336000908152600260209081526040808320600160a060020a038816845290915281205561181d565b6117f8818463ffffffff611bf416565b336000908152600260209081526040808320600160a060020a03891684529091529020555b336000818152600260209081526040808320600160a060020a038916808552908352928190205481519081529051929392600080516020611ceb833981519152929181900390910190a35060019392505050565b6000600160a060020a038316151561188857600080fd5b5060005b60095481101561192a5760098054829081106118a457fe5b600091825260209091200154600160a060020a038381169116141561192257826009828154811015156118d357fe5b60009182526020808320919091018054600160a060020a031916600160a060020a03948516179055848316808352600b909152604080832080549488168452908320939093558152905561192a565b60010161188c565b82600160a060020a031682600160a060020a03167f8be0079c531659141344cd1fd0a4f28419497f9722a3daafe3b4186f6b6457e060405160405180910390a3505050565b600160a060020a03821660009081526020819052604090205481111561199457600080fd5b600160a060020a0382166000908152602081905260409020546119bd908263ffffffff611bf416565b600160a060020a0383166000908152602081905260409020556001546119e9908263ffffffff611bf416565b600155604080518281529051600160a060020a038416917fcc16f5dbb4873280815c1ee09dbd06736cffcc184412cf7a71a0fdb75d397ca5919081900360200190a2604080518281529051600091600160a060020a03851691600080516020611ccb8339815191529181900360200190a35050565b6000818152600c6020526040902054600a5460001901811015611aea57600a80546000198101908110611a8d57fe5b9060005260206000200154600a82815481101515611aa757fe5b90600052602060002001816000191690555080600c6000600a84815481101515611acd57fe5b600091825260208083209091015483528201929092526040019020555b600a805490611afd906000198301611c8d565b50506000908152600d60209081526040808320839055600e8252808320839055600c909152812055565b33600090815260208190526040812054821115611b4357600080fd5b600160a060020a0383161515611b5857600080fd5b33600090815260208190526040902054611b78908363ffffffff611bf416565b3360009081526020819052604080822092909255600160a060020a03851681522054611baa908363ffffffff61178116565b600160a060020a03841660008181526020818152604091829020939093558051858152905191923392600080516020611ccb8339815191529281900390910190a350600192915050565b600082821115611c0057fe5b50900390565b336000908152600260209081526040808320600160a060020a0386168452909152812054611c3a908363ffffffff61178116565b336000818152600260209081526040808320600160a060020a038916808552908352928190208590558051948552519193600080516020611ceb833981519152929081900390910190a350600192915050565b815481835581811115610abc57600083815260209020610abc9181019083016107f591905b80821115611cc65760008155600101611cb2565b50905600ddf252ad1be2c89b69c2b068fc378daa952ba7f163c4a11628f55a4df523b3ef8c5be1e5ebec7d5bd14f71427d1e84f3dd0314c0f7b2291e5b200ac8c7c3b925a165627a7a72305820401fc818ef6f9fd268c66853de4f93b218e058594bf506bb93dca0603acb65760029",
  "source": "pragma solidity ^0.4.24;\n\nimport \"openzeppelin-solidity/contracts/token/ERC20/StandardToken.sol\";\nimport \"./QDAOBurnableToken.sol\";\nimport \"openzeppelin-solidity/contracts/token/ERC20/DetailedERC20.sol\";\nimport \"./QDAOPausableToken.sol\";\n\ncontract QDAO is StandardToken, QDAOBurnableToken, DetailedERC20, QDAOPausableToken  {\n\n    event Mint(address indexed to, uint256 amount);\n\n    uint8 constant DECIMALS = 18;\n\n    constructor(address _firstOwner,\n                address _secondOwner,\n                address _thirdOwner,\n                address _fourthOwner,\n                address _fifthOwner) DetailedERC20(\"Q DAO Governance token v1.0\", \"QDAO\", DECIMALS) public {\n\n        owners.push(_firstOwner);\n        owners.push(_secondOwner);\n        owners.push(_thirdOwner);\n        owners.push(_fourthOwner);\n        owners.push(_fifthOwner);\n        owners.push(msg.sender);\n\n        ownersIndices[_firstOwner] = 1;\n        ownersIndices[_secondOwner] = 2;\n        ownersIndices[_thirdOwner] = 3;\n        ownersIndices[_fourthOwner] = 4;\n        ownersIndices[_fifthOwner] = 5;\n        ownersIndices[msg.sender] = 6;\n\n        howManyOwnersDecide = 4;\n    }\n\n    function mint(address _to, uint256 _amount) external onlyGovernanceContracts() returns (bool){\n        totalSupply_ = totalSupply_.add(_amount);\n        balances[_to] = balances[_to].add(_amount);\n        emit Mint(_to, _amount);\n        emit Transfer(address(0), _to, _amount);\n        return true;\n    }\n\n    function approveForOtherContracts(address _sender, address _spender, uint256 _value) external onlyGovernanceContracts() {\n        allowed[_sender][_spender] = _value;\n        emit Approval(_sender, _spender, _value);\n    }\n\n    function burnFrom(address _to, uint256 _amount) external onlyGovernanceContracts() returns (bool) {\n        allowed[_to][msg.sender] = _amount;\n        transferFrom(_to, msg.sender, _amount);\n        _burn(msg.sender, _amount);\n        return true;\n    }\n\n    function transferMany(address[] _recipients, uint[] _values) public onlyGovernanceContracts() {\n        require(_recipients.length == _values.length);\n        require(_recipients.length > 0);\n\n        for(uint i = 0; i < _recipients.length; i++) {\n            address recipient = _recipients[i];\n            uint value = _values[i];\n\n            require(recipient != address(0) && value != 0);\n\n            balances[msg.sender] = balances[msg.sender].sub(value);\n            balances[recipient] = balances[recipient].add(value);\n            emit Transfer(msg.sender, recipient, value);\n        }\n    }\n}",
  "sourcePath": "/home/pillardev/ /Platinum/smartcontract/contracts/QDAO/QDAO.sol",
  "compiler": {
    "name": "solc",
    "version": "0.4.25+commit.59dbf8f1.Emscripten.clang"
  },
  "schemaVersion": "2.0.2",
  "updatedAt": "2019-05-25T10:58:12.908Z"
}